:020000040800F2
:100000000000012021CB0008212800082328000837
:1000100025280008272800082928000800000000DB
:10002000000000000000000000000000517C0008FB
:100030002B28000800000000F17C00087D740008F7
:1000400071CB000871CB000871CB000871CB0008A0
:1000500071CB000871CB000871CB000871CB000890
:1000600071CB000871CB000871CB000871CB000880
:1000700071CB00082D28000871CB000871CB000857
:1000800071CB000871CB000871CB000871CB000860
:1000900071CB000871CB000871CB000871CB000850
:1000A00071CB00084D28000871CB000871CB000807
:1000B00071CB0008000000000000000071CB0008B8
:1000C00071CB000871CB000871CB000871CB000820
:1000D00071CB000871CB000871CB000871CB000810
:1000E00071CB000871CB0008000000000000000088
:1000F0000000000000000000000000000000000000
:10010000000000005D2800080000000071CB00081E
:1001100000000000000000006D28000871CB0008FE
:1001200071CB000871CB000871CB0008852800084E
:1001300071CB00080000000000000000000000007B
:1001400071CB000871CB000871CB000871CB00089F
:1001500071CB000871CB000871CB000871CB00088F
:1001600071CB000871CB000871CB000800000000C3
:1001700071CB000871CB000871CB000800000000B3
:1001800071CB000871CB000871CB000800000000A3
:1001C0000348044B834202D0034B03B118477047E6
:1001D0007008002070080020000000000548064953
:1001E0000B1AD90F01EBA301491002D0034B03B145
:1001F00018477047700800207008002000000000B9
:1002000010B5064C237843B9FFF7DAFF044B13B15E
:100210000448AFF300800123237010BD7008002054
:100220000000000048DE000808B5044B1BB104497B
:100230000448AFF30080BDE80840CFE700000000AD
:100240007408002048DE000808B5062000F0C6FC4F
:10025000012002F0E3FA00BF002301461A461846C7
:1002600001F068B938B50A4C0A4D641BA4100AD0D5
:1002700004F18043013B05EB8305013C55F804394B
:100280009847002CF9D1BDE838400DF0E3BD00BF20
:10029000F4F90008F0F9000870B50D4E0D4D761B0D
:1002A000B61006D00024013455F8043B9847A64206
:1002B000F9D1094E094D761B0DF0C6FDB61006D0DA
:1002C0000024013455F8043B9847A642F9D170BD8B
:1002D000E0F90008E0F90008ECF90008E0F900088E
:1002E000024B0146186800F00BB800BF0000002068
:1002F000024B0146186801F0A1B900BF00000020C0
:100300002DE9F04F01F10B05162D83B0064623D8D9
:10031000102900F2B98000F0BFFB1025182302203D
:10032000CD4F3B44A3F108025C68944200F0B980D1
:10033000636823F003032344D4E902515A68E96057
:1003400042F0010230468D605A6000F0A7FB08348D
:10035000204603B0BDE8F08F35F0070500F194802A
:10036000A94200F2918000F097FBB5F5FC7FC0F048
:100370009D816B0A00F08F80042B00F27381AB0922
:1003800003F1390003F1380CC300B34F3B44A3F130
:1003900008015C68A14206D10CE0002A80F22B81A2
:1003A000E468A14206D0636823F003035A1B0F2AB6
:1003B000F3DD60463C69DFF8A4C264457CD0636825
:1003C00023F003035A1B0F2A00F37E81002AC7E99A
:1003D00004CC80F26F81B3F5007F80F01A81DB08D6
:1003E000591C7A6857F83180C4F808804FF0010E24
:1003F0009B100EFA03F307EBC10E1343AEF1080294
:10040000E2607B6047F83140C8F80C40821001245C
:1004100094409C4256D81C4206D120F00300640050
:100420001C4200F10400FAD007EBC009CE4680461A
:10043000DEF80C309E4507D120E1002A80F22781AA
:10044000DB689E4500F01A81596821F003014A1BC0
:100450000F2AF2DDD3E9028E5C1945F001055D60DB
:1004600042F00105C8F80CE03046CEF80880C7E934
:100470000444C4E902CC65605A50009300F00EFBBE
:10048000009B03F1080402E00C23336000242046A3
:1004900003B0BDE8F08F4FF4007340204FF03F0CE5
:1004A00073E7DC68A34208BF02307FF441AF3C69C8
:1004B000DFF8A8C1644582D17B6882100124944092
:1004C0009C42A8D9BC68636823F00308A84503D3FD
:1004D000A8EB05030F2B7EDCDFF88491D7F8082406
:1004E000D9F80030013204EB080A2B4400F03781C0
:1004F00003F580530F3323F47F6B2BF00F0B59461A
:10050000304600F0CDFA411C024600F0F7808245EB
:1005100000F2F280D9F804105944C9F804100B46CF
:1005200000F05381D7F8081401311BBFA2EB0A0A6F
:100530005344C7F80824C9F8043012F0070300F048
:100540001A81C3F108010A44C3F58051934408316C
:10055000A1EB0B01C1F30B0A514630460193009207
:1005600000F09EFA421CDDE9002300F05381831A5B
:1005700003EB0A0BD9F80410BA604BF001035144A5
:10058000BC425360C9F8041000F02B81B8F10F0F82
:1005900040F229816368A8F10C0020F0070003F005
:1005A000010304EB000C03434FF0050E0F286360BA
:1005B000CCE901EE00F2358153681446D9F82C20BD
:1005C0008A42D9F8302038BFC9F82C108A4238BF87
:1005D000C9F8301094E0621943F0010345F00105B9
:1005E00065603046BA60536000F058FA083420461F
:1005F00003B0BDE8F08F2344E1685A68A56842F073
:100600000102E96030468D605A6000F047FA083414
:100610003DE75A0A042A69D9142A00F2BE8002F181
:100620005C01C9005B3207EB010E7958AEF1080E90
:100630008E4500F097804A6822F003029A4202D960
:1006400089688E45F7D1D1F80CE07B68C4E9021EB9
:10065000CEF80840CC60D9E63004002038040020F1
:100660008C080020142B59D9542B00F29E802B0BA0
:1006700003F16F0003F16E0CC30086E608F1010878
:1006800018F0030F0EF1080E7FF4D2AE51E01944BA
:100690001C464A68DB6854F8085F42F001024A6071
:1006A0003046EB609D6000F0F9F9F0E6E80805F1EE
:1006B000080335E6234430465A6842F001025A6086
:1006C000083400F0EBF9E2E6611945F0010E42F062
:1006D0000105C4F804E03046C7E90411C1E902CCC1
:1006E0004D60E25000F0DAF90834D0E69A0902F1E0
:1006F0003901C900383296E7BC4260D0BC686368F3
:1007000023F0030BAB45ABEB050302D30F2B3FF7F5
:1007100062AF304600F0C2F90024B8E603F15C0095
:1007200003F15B0CC30030E659F808394B4540F043
:10073000968010F0030F00F1FF30F5D17B6823EABB
:1007400004037B6064009C423FF6BCAE1CB9B9E672
:10075000640008F104081C42FAD0404664E603F144
:10076000100BCCE67B6892104FF0010808FA02F2F9
:1007700013437B606AE702EB0B014942C1F30B0AAA
:10078000514630460193009200F08AF9431CDDE99E
:1007900000237FF4ECAE9A46ECE6542A26D81A0BD6
:1007A00002F16F01C9006E323DE7B3F5AA7F26D88A
:1007B000EB0B03F1780003F1770CC300E5E5D9F802
:1007C00004305B44C9F80430ACE6CAF30B000028DF
:1007D0007FF4A8AE08EB0B03BC6843F00103636031
:1007E000ECE61446EAE60123536092E7B2F5AA7FED
:1007F00021D8DA0B02F17801C900773213E740F211
:100800005452934221D8AB0C03F17D0003F17C0CD0
:10081000C300BAE5083B9B44ABEB020B4FF0000A68
:10082000A8E604F10801304600F008FFBC68D9F8DA
:1008300004106368C2E640F254518A420BD89A0C05
:1008400002F17D01C9007C32EDE64FF47E737F201A
:100850004FF07E0C99E54FF47E717E22E3E67B68D3
:1008600070E700BF032A70B412D940EA0105AD0752
:1008700004460B4620D11946204653F8045B54F831
:10088000046BAE4218D1043A032A20461946F2D826
:10089000541E72B103780A789A4208BF241806D011
:1008A0000CE010F8013F11F8012F934206D1A0424D
:1008B000F7D1002070BC7047541EEBE7981A70BC4B
:1008C000704700BF844641EA000313F003036DD173
:1008D000403A41D351F8043B40F8043B51F8043B03
:1008E00040F8043B51F8043B40F8043B51F8043B0A
:1008F00040F8043B51F8043B40F8043B51F8043BFA
:1009000040F8043B51F8043B40F8043B51F8043BE9
:1009100040F8043B51F8043B40F8043B51F8043BD9
:1009200040F8043B51F8043B40F8043B51F8043BC9
:1009300040F8043B51F8043B40F8043B51F8043BB9
:1009400040F8043B51F8043B40F8043B51F8043BA9
:1009500040F8043B403ABDD2303211D351F8043B49
:1009600040F8043B51F8043B40F8043B51F8043B89
:1009700040F8043B51F8043B40F8043B103AEDD2F8
:100980000C3205D351F8043B40F8043B043AF9D249
:10099000043208D0D2071CBF11F8013B00F8013B1C
:1009A00001D30B8803806046704700BF082A13D329
:1009B0008B078DD010F003038AD0C3F10403D21A41
:1009C000DB071CBF11F8013B00F8013B80D331F875
:1009D000023B20F8023B7BE7043AD9D3013A11F8F5
:1009E000013B00F8013BF9D20B7803704B78437060
:1009F0008B78837060467047F0B4860746D0541EEB
:100A0000002A3CD0CAB2034602E014F1FF3436D3C8
:100A100003F8012B9D07F8D1032C29D9CDB245EA63
:100A200005250F2C45EA054533D9A4F110063609F2
:100A300003F1200707EB061703F1100242E9045502
:100A400042E902551032BA42F8D1721C14F00C0F70
:100A500003EB021204F00F0613D0331F23F003033D
:100A60000433134442F8045B9342FBD106F00304C1
:100A70002CB1C9B21C4403F8011B9C42FBD1F0BC51
:100A8000704734461346002CF3D1F8E7144603466A
:100A9000C2E71A462646E0E7704700BF704700BF2E
:100AA00038B5074C002305460846236001F0A8FE30
:100AB000431C00D038BD2368002BFBD02B6038BD11
:100AC0002897002010B580210446FFF719FCC4F8D0
:100AD000DC0240B1031F00227C3043F8042F834224
:100AE000FBD1002010BD4FF0FF3010BDD0F8DC323C
:100AF0000BB100207047E5E71F2970B5054609D8FE
:100B0000D0F8DC3216460C464BB153F8240043F8BB
:100B1000246070BD162202604FF0FF3070BDFFF7F9
:100B2000D1FF10B9D5F8DC32EFE74FF0FF3070BDE0
:100B30001F2938B522D8D0F8DC2205460C466AB108
:100B400052F8213053B1012B16D0591C10D000257A
:100B5000204642F824509847284638BD284600F0E1
:100B600073F8224601462846BDE8384000F058B8E0
:100B700016230360012038BD002038BD1623036012
:100B80004FF0FF3038BD00BF1F2923D838B5D0F84B
:100B9000DC3205460C4683B153F8242003EB840372
:100BA0004AB1511C11D0012A0DD0002520461D60EC
:100BB0009047284638BD012038BDFFF783FF30B984
:100BC000D5F8DC32E8E7032038BD022038BD4FF00D
:100BD000FF3038BD4FF0FF30704700BF024B014679
:100BE0001868FFF7A5BF00BF00000020024B0A46AF
:100BF00001461868FFF780BF00000020034B18680B
:100C0000D0F8DC320BB1002070475BE70000002019
:100C1000024B01461868FFF7B7BF00BF0000002075
:100C200038B50B46074C054611461846002323608D
:100C300001F0DEFD431C00D038BD2368002BFBD043
:100C40002B6038BD2897002001F0CABD00000000CD
:100C50000000000000000000000000000000000094
:100C6000A2EB0300704700BF02780B78012A28BF6F
:100C70009A42F5D16DE9044540EA0104CDE90267E5
:100C80006FF0000C4FEA447212B380EA010414F0D2
:100C9000070F6AD100F0070420F0070004F00305F5
:100CA00021F007014FEAC505F0E8042314F0040F12
:100CB000F1E804670CFA05F462EA040266EA040645
:100CC0000AD063EA0403624667EA0407664603E063
:100CD000F0E80423F1E8046782FA4CF582EA06049E
:100CE000A4FA8CF46CBB83FA4CF583EA0705A5FAE9
:100CF0008CF595B950E9022351E9026782FA4CF567
:100D000082EA0604A4FA8CF483FA4CF583EA070518
:100D1000A5FA8CF52543DBD09CB92DBAB5FA85F43C
:100D200024F0070427FA04F1DDE9026723FA04F34B
:100D300003F0FF0001F0FF01FDE80445A0EB010016
:100D4000704724BAB4FA84F424F0070426FA04F1B4
:100D5000DDE9026722FA04F202F0FF0001F0FF0170
:100D6000FDE80445A0EB0100704714F0030F3CD1EF
:100D700010F0030428D150F8082B51F8083B82FAF0
:100D80004CF582EA0305A5FA8CF55DB950F8042C00
:100D900051F8043C82FA4CF582EA0305A5FA8CF579
:100DA000002DE8D02DBAB5FA85F424F0070423FA13
:100DB00004F122FA04F202F0FF0001F0FF01FDE865
:100DC0000445A0EB010070474FEAC40420F0030083
:100DD00050F8082B21F0030151F8083B0CFA04F4F9
:100DE00062EA040263EA0403C9E710F003041AD0BC
:100DF000A1EB040120F00300E40750F8042B06D017
:100E00000FD28B785FFAA2F4E41A06D12BB1CB781B
:100E10005FFAB2F4E41A00D11BB920465DF8104B1A
:100E2000704701F1040150F8042BCC0721F00301B5
:100E300051F8043B48D824D222F07F4482FA4CF582
:100E400094EA1325A5FA8CF50AD165B951F8043B4B
:100E500084EA0204B4EB036F0ED150F8042BEBE7E5
:100E60004FEA132355E035F07F454DD10878FDE872
:100E70000445C0F1000070474FEA126203F0FF031F
:100E800047E002EA1C4482FA4CF594EA1345A5FABD
:100E90008CF50AD165B951F8043B84EA0204B4EB3D
:100EA000034F0CD150F8042BEBE74FEA134330E02B
:100EB00015EA1C4528D10B884FEA124229E04FEA77
:100EC000124203EA1C4324E002F0FF0482FA4CF5CC
:100ED00094EA1365A5FA8CF50AD165B951F8043B7B
:100EE00084EA0204B4EB032F09D150F8042BEBE79A
:100EF0004FEA13630DE015F0FF0F05D10B684FEAC1
:100F0000122223F07F4304E04FF00000FDE8044587
:100F1000704712BA1BBA82FA4CF482EA0304A4FAAC
:100F20008CF5B5FA85F402FA04F203FA04F34FEAF9
:100F30001260FDE80445A0EB1360704780EA0102EF
:100F4000844612F0030F4FD111F0030F32D14DF848
:100F5000044D11F0040F51F8043B0BD0A3F1013202
:100F60009A4312F0803F04BF4CF8043B51F8043B15
:100F700016D100BF51F8044BA3F101329A4312F08D
:100F8000803FA4F101320BD14CF8043BA24312F094
:100F9000803F04BF51F8043B4CF8044BEAD0234691
:100FA0000CF8013B13F0FF0F4FEA3323F8D15DF843
:100FB000044B704711F0010F06D011F8012B0CF80B
:100FC000012B002A08BF704711F0020FBFD031F883
:100FD000022B12F0FF0F16BF2CF8022B8CF800200A
:100FE00012F47F4FB3D1704711F8012B0CF8012B8D
:100FF000002AF9D1704700BF000000000000000087
:1010000090F800F06DE9024520F007016FF0000C48
:1010100010F0070491F820F040F049804FF00004F0
:101020006FF00700D1E9002391F840F000F10800CB
:1010300082FA4CF2A4FA8CF283FA4CF3A2FA8CF303
:101040004BBBD1E9022382FA4CF200F10800A4FA6A
:101050008CF283FA4CF3A2FA8CF3E3B9D1E90423BE
:1010600082FA4CF200F10800A4FA8CF283FA4CF3F5
:10107000A2FA8CF37BB9D1E9062301F1200182FAAF
:101080004CF200F10800A4FA8CF283FA4CF3A2FAB5
:101090008CF3002BC6D0002A04BF04301A4612BAC3
:1010A000B2FA82F2FDE8024500EBD2007047D1E9C6
:1010B000002304F00305C4F100004FEAC50514F055
:1010C000040F91F840F00CFA05F562EA05021CBF26
:1010D00063EA050362464FF00004A9E72DE9F04FEB
:1010E0000124254688461646AE462A46ADF21C4DDA
:1010F00007461C4600214FF0FF3553189C4206EB73
:1011000005000ED9805C16F803C0844580F0CC80C1
:1011100019460122A3EB050E53189C4206EB05006D
:10112000F0D8CDF80CE04FF0010E724600214FF0E0
:10113000FF3053189C4206EB000C0FD91CF802C07C
:1011400016F80390E14540F2B68019460122A3EB60
:10115000000E53189C4206EB000CEFD86B1C0130BC
:101160009842029328BFCDE9020E05AB0DF214425E
:1011700043F8044F9342FBD1631E0093002C00F010
:101180001681009B06AD721E9819019512F8011F79
:10119000D34323443344824245F82130F6D1DDE97C
:1011A00002233046F118FFF75DFB002840F09680DF
:1011B000029B013B0593F31882468146049307EB9B
:1011C000090E009B019A1EF8033052F82330EBB150
:1011D000BAF1000F03D0039A934238BFA31A99447F
:1011E0004FF0000AA8EB04034B45E8D207EB0800D8
:1011F00044F4006100F080FB8044A8EB04034B45FD
:10120000DDD200200DF21C4DBDE8F08F029B53454E
:1012100038BF53461D46009B9D4218D205EB09027C
:10122000715DB85C88423A4406EB050334D1A4F101
:10123000020CB444C6F1010B05E013F8010F12F8DB
:10124000011F884228D19C450BEB0305F5D1029B79
:101250009A4580F0A980059B049A4B441178FA5C6A
:1012600091423B4440F0A0800AEB09053D44049ABA
:1012700005E012F8010D13F8011D884203D1AB42BD
:10128000A3EB0E0CF5D10AF1010AE2457DD8039BD0
:101290009944A4EB030AA5E7029BC3F10103994417
:1012A000A9444FF0000A9DE70CD04FF0010E0D4607
:1012B0007246714421E70BD04FF0010E084672468A
:1012C000714436E7724512BF01321946012214E714
:1012D000724512BF0132194601222AE7029AA31A67
:1012E000934238BF1346511E01330593731804917E
:1012F0000393002506EB020B07EB050E009A0199FC
:101300001EF8023051F8233083B11D44A8EB0403CA
:101310009D42F1D907EB080044F4006100F0ECFABB
:101320008044A8EB04039D42E6D96AE7029B9342FE
:1013300017D2EA189BF80030B95C99423A4429D197
:10134000A4F1020CB4445B46C6F1010905E013F8B0
:10135000010F12F8011F88421ED1634509EB030AF1
:10136000F5D1049B5A1C10D0EA18039BB95C1B787A
:1013700099423A4416D1039B05E013F8010D12F887
:10138000011D88420ED1B342F7D170460DF21C4DBB
:10139000BDE8F08FDDF808A0029BC3F101031D44F6
:1013A0005544B3E7059BB0E7DDF808C06BE706AB33
:1013B0000193F4E62DE9F0410E46097890B0044619
:1013C000002958D07278002A00F08D80B07800286B
:1013D00055D0F378002B00F08D803379002B5FD04F
:1013E0003046FFF70DFE804640F40071204600F0C5
:1013F00083FA804572D8B8F1FE0F00F29280A0EB1C
:101400000807402208F1010168462744FFF7F4FA73
:10141000B8F1000F10D0731E03EB08055FFA88F0D7
:1014200013F8012F10A902F03F020A44F11A0144F7
:10143000AB4202F8401CF3D1013C10AA14F808306A
:1014400003F03F03134413F8403C1C44A74203D26B
:1014500038E02C44A74235D314F8085010AB05F0FF
:101460003F051D4442463146204615F8405CFFF7D3
:10147000F9F90028EDD1204610B0BDE8F0812378BD
:1014800042EA014253B3601C617800E0204641EA21
:101490000343441C11B39A424178F7D1441EEAE752
:1014A0002278DAB1306800BA02E0834208D00C46F4
:1014B00042EA03236278611C002AF6D183420DD1EF
:1014C000033CD8E717F8083007EB080033B14FF4B6
:1014D000006100F011FA0744A742ADD20024204673
:1014E00010B0BDE8F08100F0A3F90446204610B02A
:1014F000BDE8F0811204237842EA016242EA002248
:10150000002BEBD01B02601C617800E020460B43EF
:101510001B02441C0029E1D09A424178F6D1841E76
:10152000A9E70146434620463246FFF7D7FD044669
:10153000A1E700BFF0B4184C2568D5F8484114B3B2
:1015400065681F2D24DC38B9AB1C0135656044F893
:1015500023100020F0BC704704EB85060127C6F875
:10156000882007FA05F2D4F88871022847EA0207B2
:10157000C4F88871C6F80831E6D1D4F88C311A4322
:10158000C4F88C21E0E705F5A674C5F84841D7E713
:101590004FF0FF30DEE700BF60DE0008F8B5244FF3
:1015A0000C460646FFF778FABB685D68C4F57E61B5
:1015B0000F3125F00305294421F47F6121F00F014B
:1015C000A1F58054B4F5805F07DB00213046FFF7BA
:1015D00067FABB682B44984204D03046FFF75EFAA6
:1015E0000020F8BD61423046FFF75AFA01300DD0B5
:1015F000104BBA6819682D1B45F001053046091BD0
:1016000055601960FFF74AFA0120F8BD0021304605
:10161000FFF746FABA68831A0F2BDEDD064C054940
:10162000246843F00103001B53600860D5E700BF46
:1016300030040020900800203808002000295ED0E7
:10164000F8B50F460646FFF727FA57F804CC754D54
:101650002CF00103A7F10800C218A9685468914250
:1016600024F0030400F084801CF0010F546002EBAE
:10167000040133D157F808EC4968A0EB0E0005F1DE
:10168000080C87686745734401F0010160D0D0F809
:101690000CE0C7F80CE0CEF80870002900F08D804F
:1016A00043F0010141601360B3F5007F30D2DB08E5
:1016B000591C6C689A1001239340234305EBC10227
:1016C00055F831406B60083AC0E9024245F83100F4
:1016D000E0603046BDE8F840FFF7E0B94968C90767
:1016E0000ED4234405F1080C9168614543F00104D0
:1016F0006BD0D268CA6091604460C350D4E7704731
:1017000043F00101B3F5007F47F8041C1360CED30A
:101710005A0A042A46D89A0902F13907FF0002F151
:101720003801EC19EA59083C944255D0516821F02F
:101730000301994202D992689442F7D1D468C0E972
:101740000224A060D0603046BDE8F840FFF7A6B99B
:10175000002962D1D2E90221234443F00104D1607F
:101760008A604460C3503046BDE8F840FFF796B940
:101770001CF0010F234407D157F8082C801A13449A
:10178000D0E90212CA609160274A126843F0010151
:101790009A424160A8609CD8244B30461968FFF7F4
:1017A000FDFE96E7142A0AD9542A1DD81A0B02F115
:1017B0006F07FF0002F16E01B3E7234494E702F1E3
:1017C0005C07FF0002F15B01ABE7C5E90400C0E97B
:1017D00002CC4460C3507CE76B688910012707FA8C
:1017E00001F119436960AAE7B2F5AA7F06D8DA0BBE
:1017F00002F17807FF0002F1770192E740F25451BD
:101800008A4206D89A0C02F17D07FF0002F17C01A2
:1018100087E74FF47E777E2183E743F00101416043
:10182000136056E7300400203C0800208C0800209C
:10183000C9B200F00303002935D07BB10378002B37
:1018400057D0994252D0431C05E013F8012B002ACF
:101850004DD08A424AD09A071846F6D170B441EA70
:101860000126046846EA064601E050F8044F86EA7D
:101870000405A5F10132A4F1013322EA050223EAAD
:101880000403134313F0803FEFD0037843B1994230
:1018900002D106E08B4204D010F8013F002BF9D1B1
:1018A000184670BC70474BB10378FBB1431C02E093
:1018B00002780133D2B199071846F9D10268A2F132
:1018C000013323EA020313F0803F08D150F8042FBC
:1018D000A2F1013323EA020313F0803FF6D003782C
:1018E00023B110F8013F002BFBD170477047104621
:1018F00070471846704700BFC9B10278CAB1431C8F
:10190000014499421A4616D010B41478013334B108
:1019100099421A4607D014780133002CF8D1101AD6
:101920005DF8044B7047081A5DF8044B7047084691
:10193000704710467047081A704700BF03685A0086
:101940004CBF43F0004323F000431844704700BFEE
:101950002DE9F84329B34F1E044615463E464FF085
:10196000000808EB060101EBD171491004EBC10935
:101970004846FFF7E3FF0346C80008308F42204483
:1019800009D0AB4209D8FFF7D9FF0138A8420AD2E3
:1019900001F10108E5E7AB4205D9884501D04E1EAB
:1019A000DFE74FF000094846BDE8F883012807D07B
:1019B000022807D0044B00280CBF184600207047AF
:1019C00002487047024870477120000875200008DF
:1019D0007920000830B5234B83B004468D1E3BB3FD
:1019E00001A92846AFF30080E8B101992A46FFF724
:1019F000AFFF0146B8B1FFF7A1FF4B68A064012B10
:101A00002BD0002B01F1040023DBFFF797FF00230D
:101A1000C4E913030368002B10DBFFF78FFF20617D
:101A2000002003B030BD00230920236103B030BD86
:101A30000D490E48091AC9100191D7E7C3F3036095
:101A4000FFF7B4FF0028206114BF0020092003B075
:101A500030BD0123C4E91303DCE700232361052023
:101A6000DFE700BF00000000E0F9000830F70008E1
:101A70000368DA0710B5044606D49B0700F1480056
:101A800009D500F04BFC2368590709D51A070ED574
:101A9000DB0613D510BD00F039FC23685907F5D4D7
:101AA00004F1D00000F042FC23681A07F0D404F5DA
:101AB000A87000F043FC2368DB06EBD404F5E87063
:101AC000BDE8104000F07EBC0346006800B1184439
:101AD000704700BF09207047704700BF70B50446CB
:101AE0000E46316C2046FFF775FF054688B9336C0A
:101AF0006361324623692146012098470828F0D0C7
:101B0000072806D12846316CFFF7E6FF301D00F0AC
:101B1000F1FBFEF799FB00BF2DE9F0470D1D0646CE
:101B200014460FCDADF5727D0DF10C0CACE80F0035
:101B30000FCDACE80F000FCDACE80F0095E80F001B
:101B400002ADF768D6F818808CE80F0000232B60F0
:101B500021E02B6C73614FF4F07229467AA8FEF7EE
:101B6000B1FE33697AAA314650469847889BCDE941
:101B7000005821466B648146334632460120B847FF
:101B80000446E8B94FF4F0727AA92846FEF79AFEA7
:101B9000B9F1080F1BD1296C3046FFF71BFF093440
:101BA0005FFA84FA81460028D3D0AB6B4AF010016B
:101BB000CDE9005832466B6401203346B84708B17E
:101BC0004FF0090948460DF5727DBDE8F087B9F17F
:101BD000070FF5D12046296CFFF77EFF03A800F020
:101BE00089FB00BF406C7047F0B5CB6B0B640E1DDA
:101BF0000F4605460FCEF9B001AC0FC40FCE0FC48F
:101C00000FCE0FC496E80F004FF0FF3684E80F00A8
:101C1000009606E02B696A4629469847082804463C
:101C200008D110992846FFF7D5FE0028F2D00920E8
:101C300079B0F0BD6846FFF71BFF062CF7D1394697
:101C40002846FFF74BFF00BF30B4DD6BC1608261F7
:101C500019461D64002230BC5EE700BF70B5C6683F
:101C600043690B64AEB903690A4604460D46014652
:101C700002209847072805D008280FD1294620467A
:101C8000FFF72CFF3046296CFFF726FF281D00F0D8
:101C900031FB0122FFF740FFFEF7D6FAFEF7D4FA38
:101CA000C2681AB1CA6B0A64002235E79CE700BF1C
:101CB000704700BF836801460BB101201847704789
:101CC000012912D009D873B90F2A0CD800EB82026F
:101CD00018465368009A136070470339012994BF6E
:101CE000012002207047022070470846704700BF5D
:101CF00010B584B0002303AC0A4600941946FFF7E0
:101D0000DFFF039804B010BD012912D009D873B9C0
:101D10000F2A0CD800EB8200009A12684260184625
:101D200070470339012994BF012002207047022027
:101D300070470846704700BF10B584B0002303AC5D
:101D4000039200940A461946FFF7DEFF04B010BD67
:101D5000F0B5D36B1364151D8C4606460FCDADF55B
:101D60000F7D17AC0FC40FCD0FC40FCD0FC495E876
:101D70000F004FF0FF3784E80F006546169710E01C
:101D8000FFF7DAFF294616A8B047034616AA6946A8
:101D9000082083B9049B9847052804460CD00928DD
:101DA00009D026996846FFF715FE03466A460C21BE
:101DB00016A8002BE4D0092416A8FFF759FE2046E8
:101DC0000DF50F7DF0BD00BF2DE9F04FCC6C89B053
:101DD0000D4654F8041B0694174600F003081E46EF
:101DE000002B79D00B0CDAB209048DF81D300223D8
:101DF00004EB820405918DF81C302B6DB8F1020FB5
:101E000008BFAC6B13F001030CD0384605A900F0F5
:101E100073FB18B9082009B0BDE8F08F092009B09C
:101E2000BDE8F08FD4F800A0BAF1000FEDD0019317
:101E300000F008030293022E4AD0B4F800A0B4F8D0
:101E400002900434AA6C29F0010B0F213846934408
:101E5000FFF74EFF834539D82AF001025A448242E7
:101E600094BF002001204FEA490303F002030AF067
:101E7000010A43EA0A03012B49D0022B32D0002B7E
:101E8000CCD1B8F1000F02D0002840F0CD8004344E
:101E9000D4F800A0BAF1000FCDD105A9384600F062
:101EA0002BFB0028BAD1019B002BB3D00F21384661
:101EB000FFF71EFF0E2102463846FFF73DFF38466A
:101EC0006A4A0F21FFF738FF0720A8E70020CAE77A
:101ED000D4F804900834B5E7090203230591ADF85E
:101EE0001C308AE7236823F0004BB8F1000F45D17E
:101EF00028B1029A002A5CD0BBF1000F74D0002BED
:101F000000DA04340BF1010B04EB8B04C0E7B8F1E9
:101F1000000F19D1B0B1D4E90023991C4FEAD27255
:101F20003FF47CAF05F158010133049100F090803B
:101F3000201DFFF7C9FD04AB014628460AF024FE28
:101F400000285BD10834A3E70D213846D5F820904E
:101F5000FFF7CEFE8145F5D1AB6A9C42F2D1204617
:101F6000FFF7ECFC0F2102463846FFF7E5FE384646
:101F70002A460021FFF7E0FE072050E70D213846F2
:101F8000D5F82090FFF7B4FE814501D02368B6E76D
:101F9000AB6A9C42FAD104220021C5E90B12A318B6
:101FA000C5F828B06B6323688B4259DB012301938A
:101FB000A8E705F15803CDF80C8004F1040AB046F7
:101FC00091461E460DE00496FFF77EFD04AB0146E8
:101FD000002228460AF0D8FD09F101090AF1040A95
:101FE000E8B9D9455046EED138460D21FFF780FEBD
:101FF000049B2862C5E90934062010E781460D21BB
:102000003846FFF775FEB9F1020F286225D12B463D
:10201000049A43F82C2F6B62AC620620FFE646461A
:102020002368DDF80C806AE72046FFF787FC04345C
:102030000246AC63284614460AF006FE00283FF428
:10204000EDAE384622460F21FFF776FE0720E6E682
:1020500038460D21FFF74CFE2862049B6B62DBE7DC
:102060000BF1010004EB80007AE700BF05D90008FE
:102070000023A9E60123A7E60223A5E62DE9F04304
:102080000646C3B015461C46042900F2B980DFE8B5
:1020900001F09A53B7290300002C40F0B180102AB8
:1020A00000F2AE800368D80600F1F38020AF384616
:1020B00000F092F9B06B0023012404FA03F22A42E3
:1020C000014604D051F8042B47F823200846013379
:1020D000042BF2D1B063384600F074F9002043B00D
:1020E000BDE8F083032C40F08B8094B204EB1243E4
:1020F000102B4FEA124500F2838003681F0700F19E
:10210000D08020AF384600F03BF907EBC501B56B36
:1021100054B10B46E81A01EBC401E4001A5843F825
:10212000042B8B42FAD125443846B56300F006F9FA
:10213000002043B0BDE8F083012C4FEA124895B26D
:102140005AD0052C5CD108EB0509B9F1200F57D8FE
:10215000B8F10F0F77D9A946002D40F08880B36BF6
:102160006DB320AF4FF0000907EBC807043F03EB46
:10217000C50553F8041B47F8041FAB42F9D1B9F168
:10218000000F0FD06F464146102938BF102107EBD2
:10219000C101843903EBC90553F8040B41F8040F5E
:1021A000AB42F9D1012C00F08480B8F10F0FB56378
:1021B00045D9B9F1000F02D0684600F0B7F8002009
:1021C00043B0BDE8F083DCB9876B2346012094B2AD
:1021D00006F1040C00FA03F22242394604D051F809
:1021E000042B4CF823200F460133102BF2D115F4A9
:1021F0000050E4D1B76304E008EB0503102B03D9CA
:10220000022043B0BDE8F083B8F10F0FF8D833686F
:10221000DA0706D5304623F0030340F8483B00F0C8
:1022200079F820AF384600F075F8B36B002D99D1DE
:102230001D460435B563384600F068F8BFE720A8AE
:1022400000F06CF8B5E7B9F1100F40D9A9F1100909
:102250003368D90708D523F00103304643F0020361
:1022600040F8483B00F05EF8B9F1000F32D0336817
:102270005A0720D4B8F10F0F25D96F463846C8F158
:10228000100500F057F8002DB36B7FF77CAF20AF3F
:102290006AE723F01003336006F5E87000F09CF85D
:1022A00004E723F00803036000F5A87000F068F865
:1022B00027E720AFBDE7304623F0040340F8D03BCA
:1022C00000F038F8D6E720A800F02CF8D5E74FF05A
:1022D0000009BDE7B8F10F0F3FF641AF20AF384618
:1022E00000F020F8B36B002D7FF43CAF384600F0CF
:1022F00015F864E700F1340191E838009C46A646E1
:102300004CF8045D90E8FF0FE54600BD90EC210B12
:10231000704700BF80EC210B704700BF90EC200B92
:10232000704700BF80EC200B704700BFD0EC200B43
:10233000704700BFC0EC200B704700BFF0EC0201FB
:10234000F0EC0211F0EC0221F0EC0231F0EC024171
:10235000F0EC0251F0EC0261F0EC0271F0EC028161
:10236000F0EC0291F0EC02A1F0EC02B1F0EC02C151
:10237000F0EC02D1F0EC02E1F0EC02F1704700BFAA
:10238000E0EC0201E0EC0211E0EC0221E0EC0231B1
:10239000E0EC0241E0EC0251E0EC0261E0EC0271A1
:1023A000E0EC0281E0EC0291E0EC02A1E0EC02B191
:1023B000E0EC02C1E0EC02D1E0EC02E1E0EC02F181
:1023C000704700BFB0FC0181B0FC0191B0FC01A1DD
:1023D000B0FC01B1704700BFA0FC0181A0FC0191DD
:1023E000A0FC01A1A0FC01B1704700BFEC4600B504
:1023F0002DE900502DE9FF1F4FF000032DE90C00DF
:1024000001A9FFF7F1FBDDF840E012B0704700BF13
:10241000EC4600B52DE900502DE9FF1F4FF00003F9
:102420002DE90C0001A9FFF719FCDDF840E012B01E
:10243000704700BFEC4600B52DE900502DE9FF1FA5
:102440004FF000032DE90C0001A9FFF729FCDDF88E
:1024500040E012B0704700BFEC4600B52DE90050D7
:102460002DE9FF1F4FF000032DE90C0001ABFFF732
:10247000EBFBDDF840E012B0704700BFEC4600B562
:102480002DE900502DE9FF1F4FF000032DE90C004E
:1024900001AAFFF75DFCDDF840E012B0704700BF15
:1024A000027A7AB9437AA3B14268013B10B443720D
:1024B00013680321141D01721A024460026010BCEB
:1024C000180E70470368013A02721A020260180E71
:1024D0007047B020704700BF00B585B003AA002345
:1024E000009219460C22FFF7EBFB039805B05DF84C
:1024F00004FB00BFF0E700BF2DE9F043054685B0BF
:102500000E464FF000083046FFF7CAFFB0280446D9
:1025100000F0B280070620D500F0F003802B4DD0EC
:10252000902B36D0A02B60D0B02B74D0C02B00F0F5
:102530008B8000F0F803D02B0BD100F007020132A2
:1025400042F40022052301212846FFF797FD0028C9
:10255000D9D0092005B0BDE8F0830DF10C090023A6
:1025600019468700CDF800900D222846FFF7A8FBFA
:10257000FFB2039BCDF80090043760064CBFDF1B11
:10258000FF18002319460D2228460397FFF7BCFBCE
:10259000B9E700F00D030D2BDBD003AF002300F0F3
:1025A0000F02194600972846FFF78AFB0023009781
:1025B00019460D222846FFF7A7FBA4E73046FFF790
:1025C0006FFF24022043B0F5004FC2D00401002366
:1025D000A2B219462846FFF751FD0028B9D114F4DC
:1025E000004F18BF4FF001088DE7C24302F0070308
:1025F0004FF47F621A41010702F47F624FF000033B
:1026000048BF42F4804219462846FFF737FD0028AC
:102610003FF479AF9DE7B12833D0B22800F08B802A
:10262000B32839D000F0FC03B42B92D000F007029D
:102630000132012342F4002219462846FFF71EFD0D
:1026400000283FF460AF84E7C62842D0C7284CD0AA
:1026500000F0F803C02B5BD0C82860D0C9287FF4F5
:1026600078AF3046FFF71CFF020300F00F0002F4C2
:1026700070220130024365E7B8F1000F18D0002046
:1026800068E73046FFF70CFF024600283FF461AFD1
:1026900010F0F003D0D05CE73046FFF701FF0103F4
:1026A00000F00F0001F47021421C01230A43C3E72C
:1026B00003AC43460E22414600942846FFF700FB38
:1026C0000094284643460F224146FFF71DFB404633
:1026D00040E73046FFF7E4FE010300F00F0001F48D
:1026E0007021421C03230A43A6E73046FFF7D8FEB9
:1026F000024600283FF42DAF10F0F0037FF429AF1D
:1027000004212846FFF7BAFC00283FF4FCAE20E77E
:1027100000F00F020132032342F420228CE73046FE
:10272000FFF7BEFE00F0F00200F00F03103201339D
:1027300043EA023206E700230DF10C090D22194687
:10274000CDF800902846FFF7BBFA3046FFF7A8FE09
:1027500002064FF002070CD5039B00F07F00B84043
:10276000034430460393FFF79BFE030607F1070778
:10277000F2D4039BCDF8009000F07F0403F50172C2
:10278000BC400023144419460D2228460394FFF749
:10279000BBFAB8E610B5C26C84B0536803248DF858
:1027A0000C401B0202F108040846D279019301A9EA
:1027B00002948DF80D20FFF79FFE04B010BD00BFFE
:1027C00008B5FFF797FE806C08BD00BF08B5FFF79E
:1027D00091FEC06CC379023300EB830008BD00BFDB
:1027E000024B58221A604FF0FF30704728970020A4
:1027F000024B58221A604FF0FF3070472897002094
:10280000044A05491368002B08BF0B4618441060A2
:1028100018467047C008002030970020FEE700BF30
:10282000FEE7FEE7FEE7FEE7FEE7704708B505486E
:1028300001F086FF044B1B68D3F8480504F070FFD5
:1028400008BD00BFFC8F0020D08F002008B50248D3
:1028500002F03BFD08BD00BF2C92002008B50248E5
:1028600008F06AFE08BD00BFE090002008B50348EC
:1028700002F02BFD024807F0A4FD08BDB091002036
:10288000E88F002008B50D4B1B6B812B10D00B4B34
:102890001B6B822B0CD0094B1B6B902B03D0074B6F
:1028A0001B6BA02B08D1054BD86B01F049FF03E04F
:1028B000024B186C01F044FF08BD00BFE0900020FF
:1028C00000B583B00D4B1A6E42F001021A661A6E03
:1028D00002F001020092009A9A6D42F080529A65CD
:1028E0009B6D03F080530193019B00220F216FF039
:1028F000010001F0E9FF03B05DF804FB00100240A5
:1029000070B588B00023039304930593069307934F
:102910000268244B9A4201D008B070BD044603F50A
:10292000CE339A6D42F000529A659A6D02F00052D1
:102930000192019ADA6C42F00102DA64DB6C03F076
:1029400001030293029B10260396032304930025A0
:10295000059503A94FF0904001F09AFC1248134BE3
:102960000360062343608660C560802303614FF4E3
:102970000073436185612023C3614FF400530362F8
:1029800001F076FD58B9084BA3609C620022052136
:10299000362001F099FF362001F0CAFFBCE709F0AC
:1029A00037FFF0E700740040FC8F00203000024049
:1029B00010B5A0B0044600211B911C911D911E91E1
:1029C0001F91602203A8FEF717F82268194B9A425C
:1029D00001D020B010BD4023039300230F9303A820
:1029E00000F0A6FF10BB144CE36C43F00203E36459
:1029F000E36C03F002030193019B4FF4C0731B933C
:102A000012231C9301231D9303231E9304231F935E
:102A10001BA90A4801F03CFCA36D43F40013A36515
:102A2000A36D03F400130293029BD2E709F0F0FEBA
:102A3000D9E700BF005400400010024000040048E5
:102A40002DE9F041A0B0044600211B911C911D917D
:102A50001E911F91602203A8FDF7CEFF2268384B1C
:102A60009A4202D020B0BDE8F0814FF400230393D6
:102A70000023169303A800F05BFF002859D1314BC7
:102A80001A6E42F480621A661A6E02F48062009234
:102A9000009ADA6C42F00402DA64DA6C02F00402A2
:102AA0000192019ADA6C42F00802DA64DB6C03F0FE
:102AB00008030293029B4FF488531B934FF00208C4
:102AC000CDF8708000251D9503271E970C261F96B4
:102AD0001BA91D4801F0DCFB04231B93CDF870807B
:102AE0001D951E971F961BA9184801F0D1FB184889
:102AF000184B0360072343608560C5608023036132
:102B00004FF4007343614FF400638361C5614FF478
:102B10004053036201F0ACFC70B90D4B23649C621E
:102B200000220521312001F0CFFE312001F000FF0D
:102B300098E709F06DFEA2E709F06AFEEDE700BF35
:102B4000002801400010024000080048000C004826
:102B5000449000204404024000B583B00368B3F100
:102B6000804F05D0124A93420ED003B05DF804FBAB
:102B700003F504339A6D42F001029A659B6D03F0F0
:102B800001030093009BF0E70A4B9A6D42F010029C
:102B90009A659B6D03F010030193019B00220521B0
:102BA000362001F091FE362001F0C2FEDDE700BFC5
:102BB000001000400010024000B587B000230193D0
:102BC00002930393049305930368B3F1804F02D0FB
:102BD00007B05DF804FB03F50433DA6C42F0010240
:102BE000DA64DB6C03F001030093009B4FF40043B5
:102BF000019302230293002303930493012305937B
:102C000001A94FF0904001F043FBE1E730B589B0F6
:102C100004461E4B1A6E42F400621A661B6E03F4E1
:102C200000630193019B02A903A800F035FD00F0A9
:102C300021FD03461648A0FB03239B0C013B1548CE
:102C4000154A026040F2E732C2604360002303612C
:102C50008360836102F03EFC054610B1284609B04E
:102C600030BD0C4802F0F6FA05460028F6D11920CE
:102C700001F05EFE0F2C01D90125EFE7002221466D
:102C8000192001F021FE054B1C60E7E7001002400F
:102C900083DE1B432C920020002C014044080020BE
:102CA00010B5032001F0FEFD0520FFF7AFFF10B1C6
:102CB0000124204610BD0446FFF702FEF9E700009C
:102CC000034B1B78034A11680B441360704700BF25
:102CD0004008002078920020014B1868704700BF20
:102CE0007892002038B50446FFF7F6FF0546B4F1A8
:102CF000FF3F02D0044B1B781C44FFF7EDFF401B45
:102D0000A042FAD338BD00BF4008002030B583B0E0
:102D10000446204B9B6D13F0805F0BD001F072FDD9
:102D2000B0F5007F17D0802C1FD82DD0702C2DD05F
:102D300000211BE0174DAB6D43F08053AB65AB6DCD
:102D400003F080530193019B01F05CFDAB6D23F018
:102D50008053AB65E4E7802C03D9A02C03D9022172
:102D600004E0002102E0012100E003210A4A136887
:102D700023F007030B431360136803F007038B4230
:102D800006D1002003B030BD0221EFE70121EDE7BD
:102D90000120F7E70010024000200240284A936813
:102DA000D26802F0030213F00C030AD00C2B06D0F9
:102DB000042B1FD0082B20D00020024610E0012A4F
:102DC000F6D11F4A126812F0080F0CD11C4AD2F833
:102DD0009420C2F303221B4951F8222043B1002062
:102DE0000C2B0DD07047164A1268C2F30312F2E79B
:102DF0001046F5E714480022F2E714480022EFE7F6
:102E00000F4BDB6803F00303022B16D0032B00D11A
:102E10000E4A0B4BD868C0F302100130D968C1F3D9
:102E2000062102FB01F2B2FBF0F2D868C0F3416068
:102E300001304000B2FBF0F0D4E7034AE9E700BFFD
:102E4000001002407CDE00080024F40000127A002A
:102E5000002800F01C83F0B583B00446AE4B9D689B
:102E600005F00C05DE6806F00306036813F0100F8A
:102E70005AD0E5B10C2D18D0A369002B00F0BB800F
:102E8000A54A136843F001031360FFF725FF0746C7
:102E9000A14B1B6813F0020F40F09A80FFF71CFF54
:102EA000C01B0228F4D90320FCE2012EE4D19A4B86
:102EB0001B6813F0020F03D0A369002B00F0E98216
:102EC000206A954B1B6813F0080F5BD0924B1B6870
:102ED00003F0F00398425CD88F4B1A6842F0080266
:102EE0001A601A6822F0F002216A0A431A605A68CE
:102EF00022F47F42E16942EA01225A60002D60D04B
:102F0000FFF74CFF844B9B68C3F30313834AD35CE6
:102F100003F01F03D840824B1860824B1868FFF7FC
:102F200075FE002840F0BE82236813F0010F00F008
:102F30008180082D75D00C2D71D06368B3F5803F6A
:102F400000F09780B3F5A02F00F09980724B1A68BB
:102F500022F480321A601A6822F480221A606368B0
:102F6000002B00F09980FFF7B7FE07466A4B1B68FD
:102F700013F4003F5ED1FFF7AFFEC01B6428F5D904
:102F800003208FE2644BD3F894301B0903F0F00365
:102F9000A0E7FFF7BBFE002840F07D825E4B1A6879
:102FA00042F008021A601A6822F0F002216A0A430D
:102FB0001A605A6822F47F42E16942EA01225A60AB
:102FC0009EE7206AFFF7A2FE002899D0012069E25F
:102FD000514B1A6842F008021A601A6822F0F00297
:102FE000216A0A431A605A6822F47F42E16942EA80
:102FF00001225A6098E7484A136823F001031360DE
:10300000FFF76AFE0746444B1B6813F0020F8BD094
:10301000FFF762FEC01B0228F5D9032042E2032E0F
:103020008BD13D4B1B6813F4003F03D06368002B2A
:1030300000F03382236813F0020F4FD0042D3CD0F0
:103040000C2D38D0E368002B77D0334A136843F453
:1030500080731360FFF740FE06462F4B1B6813F486
:10306000806F61D1FFF738FE801B0228F5D903205D
:1030700018E2294A136843F4803313606FE703F1C1
:103080008043A3F53C331A6842F480221A601A6820
:1030900042F480321A6062E7FFF71EFE07461E4BBD
:1030A0001B6813F4003FC5D0FFF716FEC01B642851
:1030B000F5D90320F6E1022EC4D1174B1B6813F497
:1030C000806F03D0E368002B00F0E981124A536857
:1030D00023F0F853216943EA01635360236813F036
:1030E000080F55D06369002B3BD00B4AD2F89430BF
:1030F00043F00103C2F89430FFF7EEFD0646064B9D
:10310000D3F8943013F0020F42D1FFF7E5FD801B96
:103110000228F4D90320C5E10010024064DE000853
:103120004808002044080020AC4A536823F0F853B4
:10313000216943EA01635360D0E7A84A136823F486
:1031400080731360FFF7C8FD0646A44B1B6813F499
:10315000806FC3D0FFF7C0FD801B0228F5D9032084
:10316000A0E19E4AD2F8943023F00103C2F89430D3
:10317000FFF7B2FD0646994BD3F8943013F0020FD7
:1031800006D0FFF7A9FD801B0228F4D9032089E1AE
:10319000236813F0040F7AD0904B9B6D13F0805F7F
:1031A00036D18E4B9A6D42F080529A659B6D03F03A
:1031B00080530193019B0126894B1B6813F4807F88
:1031C00028D0A368012B39D0052B3FD0834BD3F8EF
:1031D000902022F00102C3F89020D3F8902022F032
:1031E0000402C3F89020A368002B3DD0FFF774FDC4
:1031F00007467A4BD3F8903013F0020F46D1FFF711
:103200006BFDC01B41F288339842F2D9032049E19B
:103210000026D1E7724A136843F480731360FFF706
:103220005BFD07466E4B1B6813F4807FC9D1FFF727
:1032300053FDC01B0228F5D9032033E1674AD2F8B9
:10324000903043F00103C2F89030CCE7634BD3F8E1
:10325000902042F00402C3F89020D3F8902042F06E
:103260000102C3F89020BEE7FFF736FD07465B4B2F
:10327000D3F8903013F0020F08D0FFF72DFDC01BDC
:1032800041F288339842F2D903200BE1E6B9236872
:1032900013F0200F35D0636AE3B1504AD2F898306A
:1032A00043F00103C2F89830FFF716FD06464B4B7A
:1032B000D3F8983013F0020F23D1FFF70DFD801BD8
:1032C0000228F4D90320EDE0444A936D23F08053A3
:1032D0009365DCE7414AD2F8983023F00103C2F845
:1032E0009830FFF7F9FC06463C4BD3F8983013F0C2
:1032F000020F06D0FFF7F0FC801B0228F4D9032050
:10330000D0E0A36A002B00F0CC80022B17D00C2D4C
:1033100000F0CC80314A136823F080731360FFF70C
:10332000DBFC04462D4B1B6813F0007F00F0A880E7
:10333000FFF7D2FC001B0228F4D90320B2E0274B90
:10334000DB6803F00301E26A914209D00C2D00F022
:10335000AB80224B1B6813F0806F2BD00120A1E0C3
:1033600003F07002216B0139B2EB011FEED103F4BF
:10337000FE42616BB2EB012FE8D103F07842A16B02
:10338000B2EBC16FE2D103F4C001E26B5208013A23
:10339000B1EB425FDAD103F0C063226C5208013A0C
:1033A000B3EB426FD2D10D4B1B6813F0007F4DD0B1
:1033B000002077E0094A136823F080731360FFF759
:1033C0008BFC0546054B1B6813F0007F0AD0FFF706
:1033D00083FC401B0228F5D9032063E00010024063
:1033E00000700040324AD36832491940E36A206BCA
:1033F000013843EA0013606B43EA0023E06B4008A6
:10340000013843EA4053206C4008013843EA4063E6
:10341000A06B43EAC0630B43D360136843F080732F
:103420001360D36843F08073D360FFF755FC044604
:103430001F4B1B6813F0007F06D1FFF74DFC001BEC
:103440000228F5D903202DE000202BE0184B1A6844
:1034500042F080721A60DA6842F08072DA60FFF738
:103460003BFC0446124B1B6813F0007F06D1FFF7AC
:1034700033FC031B022BF5D9032013E0002011E0DD
:103480000B4AD1680C4B0B40D36000200AE00120AE
:103490007047012006E0012004E0012002E0012045
:1034A00000E0002003B0F0BD0120FBE70120F9E7B8
:1034B000001002408C809D01FCFFEEFE002800F011
:1034C000AF8070B50D460446594B1B6803F00703E7
:1034D0008B420BD2564A136823F007030B43136049
:1034E000136803F007038B4240F09C80236813F0BD
:1034F000020F0CD0A2684F4B9B6803F0F0039A4276
:1035000005D94C498B6823F0F0031A438A6023687D
:1035100013F0010F39D06368032B09D0022B26D09A
:1035200063BB444A126812F0020F06D1012076E014
:10353000404A126812F0007F76D03E498A6822F035
:10354000030213438B60FFF7C7FB0646394B9B68AA
:1035500003F00C036268B3EB820F16D0FFF7BCFBDD
:10356000801B41F288339842F0D9032057E0314A5A
:10357000126812F4003FE0D1012050E02D4A126899
:1035800012F4806FD9D1012049E0236813F0020FB3
:103590000CD0A268274B9B6803F0F0039A4205D237
:1035A00024498B6823F0F0031A438A60204B1B6880
:1035B00003F00703AB420AD91D4A136823F007033F
:1035C0002B431360136803F00703AB422ED123682B
:1035D00013F0040F06D0174A936823F4E063E16800
:1035E0000B439360236813F0080F07D0114A9368C8
:1035F00023F46053216943EAC1039360FFF7CEFBD4
:103600000C4B9B68C3F303130B4AD35C03F01F03FB
:10361000D8400A4B18600A4B1868FFF7F7FA70BDDC
:10362000012070470120FAE70120F8E70120F6E7C2
:10363000002002400010024064DE0008480800201C
:1036400044080020014B1868704700BF480800205C
:1036500008B5FFF7F7FF054B9B68C3F30223044A45
:10366000D35C03F01F03D84008BD00BF0010024028
:1036700074DE000808B5FFF7E5FF054B9B68C3F350
:10368000C223044AD35C03F01F03D84008BD00BF27
:103690000010024074DE00080F2303600B4B9A6891
:1036A00002F0030242609A6802F0F00282609A68B7
:1036B00002F4E062C2609B68DB0803F4E06303612C
:1036C000034B1B6803F007030B60704700100240B8
:1036D00000200240B0F5006F2AD00023B3F5000FA0
:1036E00030D0002B66D103F1804303F504331B680F
:1036F00013F0006F55D0304B1B6913F4803F50D04E
:103700002D4BD868C0F302100130B1FBF0F11869FD
:10371000C0F306201B69DB0E05D1274B1B6913F490
:10372000003F3CD0112300FB01F0B0FBF3F07047E9
:10373000214BD3F8883003F44003B3F5400FCDD1CB
:103740001E48704703F17E5303F504331B6813F0E2
:10375000007F1ED0184BDB6813F4803F19D0164B46
:10376000D868C0F302100130B1FBF0F1D868C0F3A3
:103770000620DB68DB0E05D10F4BDB6813F4003F3E
:1037800005D0112300FB01F0B0FBF3F070470723D5
:10379000F8E7094B186810F4806009D170470723D7
:1037A000C1E7054B186810F48060F7D00448F5E7CE
:1037B00003487047002070470010024068FF1F0058
:1037C0000024F400F8B504460F46584BDB6813F0AC
:1037D000030F18D0554BDB6803F0030302689342D4
:1037E00002D001252846F8BD002A00F09D804F4BED
:1037F000DB68C3F3021301334268934201D0012511
:10380000F0E7002509E00368022B56D0032B5BD0BC
:10381000012B41D00125002DE4D1444A136823F047
:1038200080631360FFF758FA0646404B1B6813F09D
:10383000006F05D0FFF750FA831B022BF5D9032543
:10384000002DCFD1002F4DD138490B6923F078439B
:1038500023F4FE43A068E268D20642EA0022134342
:103860000B61324A136843F080631360FFF734FA48
:1038700006462E4B1B6813F0006F05D1FFF72CFA9C
:10388000831B022BF5D90325002DABD1274A1369E1
:10389000A1690B431361A5E7244A126812F0020FD5
:1038A0001ED02248C26822F073026168013943EADF
:1038B00001131343C3600025ADE71C4A126812F4DC
:1038C000806FEED10125A6E7184A126812F4003F76
:1038D000E7D1164A126812F4802FE2D101259AE747
:1038E000012598E7012F0FD01048026922F0C0622D
:1038F00022F4FE42A16863695B08013B5B0643EA70
:10390000012313430361ACE70848026922F4C002B3
:1039100022F4FE42A16823695B08013B5B0543EA90
:103920000123134303619CE701255BE7001002407C
:103930002DE9F04182B00446036813F4006F25D0EE
:10394000436CB3F5000F06D0B3F5400F12D04BB166
:10395000012637461CE0BD4AD36843F48033D36068
:10396000002708E000210430FFF72CFF074610B1C4
:1039700006460DE00027B54AD2F8883023F440030C
:10398000616C0B43C2F88830002601E00026374600
:10399000236813F4003F6BD0AC4B9B6D13F0805F3A
:1039A0004CD1AA4B9A6D42F080529A659B6D03F000
:1039B00080530193019B4FF00108A54A136843F41B
:1039C00080731360FFF788F90546A14B1B6813F459
:1039D000807F05D1FFF780F9401B0228F5D9032726
:1039E000002F40D1994BD3F8903013F4407315D089
:1039F000E26D9A4212D0954AD2F8903023F4407387
:103A0000D2F8901041F48031C2F89010D2F89010A2
:103A100021F48031C2F89010C2F8903013F0010FF9
:103A20000FD1002F40F0F780884AD2F8903023F46D
:103A30004073E16D0B43C2F8903015E04FF0000881
:103A4000BBE7FFF749F90546804BD3F8903013F0F8
:103A5000020FE6D1FFF740F9401B41F2883398424C
:103A6000F2D90327DDE73E46B8F1000F40F0D580DC
:103A7000236813F0010F08D0744AD2F8883023F07D
:103A80000303216A0B43C2F88830236813F0020F46
:103A900008D06E4AD2F8883023F00C03616A0B43D9
:103AA000C2F88830236813F0040F08D0674AD2F8B0
:103AB000883023F03003A16A0B43C2F888302368B2
:103AC00013F0200F08D0614AD2F8883023F4406305
:103AD000E16A0B43C2F88830236813F4007F08D0F2
:103AE0005A4AD2F8883023F44023E16B0B43C2F8E2
:103AF0008830236813F4806F08D0544AD2F8883095
:103B000023F44013216C0B43C2F88830236813F070
:103B1000400F08D04D4AD2F8883023F44053216B2F
:103B20000B43C2F88830236813F0800F08D0474A4F
:103B3000D2F8883023F44043616B0B43C2F88830DD
:103B4000236813F4807F08D0404AD2F8883023F4E9
:103B50004033A16B0B43C2F88830236813F4005F35
:103B60000FD03A4AD2F8883023F04063A16C0B435F
:103B7000C2F88830A36CB3F1006F54D0B3F1806FFA
:103B800056D0236813F4002F0FD0304AD2F8883073
:103B900023F04063E16C0B43C2F88830E36CB3F16F
:103BA000006F4DD0B3F1806F54D0236813F4802F91
:103BB0000FD0264AD2F8883023F04063216D0B43A2
:103BC000C2F88830236DB3F1006F4BD0B3F1806F32
:103BD0004DD0236813F4804F0CD01C4AD2F88830A3
:103BE00023F04053616D0B43C2F88830636DB3F12D
:103BF000805F44D0236813F4004F08D0134AD2F8F2
:103C0000883023F08043A16D0B43C2F888303046E2
:103C100002B0BDE8F0813E4626E70C4A936D23F0E2
:103C20008053936524E7D36843F48013D360A8E7F7
:103C30000121201DFFF7C6FD0028A2D00646A0E7FF
:103C4000D36843F48013D360AFE700BF0010024095
:103C5000007000400121201DFFF7B4FD0028A4D012
:103C60000646A2E7D36843F48013D360B1E701218D
:103C7000201DFFF7A7FD0028ABD00646A9E70221CB
:103C8000201DFFF79FFD0028B4D00646B2E700BF15
:103C900008B5B0F5003F3BD0B84BDB6803F0030339
:103CA000022B78D0032B7DD0012B5DD00021B0F505
:103CB000807F00F05F8200F2968020287AD800286A
:103CC00000F0D58201381F2800F2D382DFE810F01F
:103CD00062018601D102B501D102D102D102D10225
:103CE000D102D102D102D102D102D102D102D1023C
:103CF000D102D102D102D102D102D102D102D1022C
:103D0000D102D102D102D102D102D102D102DE010F
:103D10009A4BD3F8903003F44073B3F5007F11D081
:103D2000B3F5407F18D0B3F5807F01D000209FE22B
:103D3000924BD3F8900010F0020000F099824FF4FB
:103D4000004095E28D4BD3F8940010F0020000F093
:103D50008F824FF4FA408BE2884B186810F40030E1
:103D600000F08682864883E2844B196811F00201D4
:103D70009DD01B6813F0080F07D0804B1B68C3F35E
:103D80000313804A52F8231091E77C4BD3F8943008
:103D9000C3F30323F5E7794B196811F4806186D0EA
:103DA000794984E7754B196811F400313FF47FAF0E
:103DB00076497CE7402800F0B481802811D16F4B10
:103DC000D3F8883003F44043B3F5804F00F0C88146
:103DD000B3F5004F00F0C781002B00F0BE8100203A
:103DE00046E2002044E2B0F5006F79D039D9B0F551
:103DF000004F00F0298259D9B0F5802F02D0B0F5DC
:103E0000002F6BD15D4BD3F8883003F04063B3F1E2
:103E1000006F00F08B806AD8002B00F0A680B3F111
:103E2000806F62D1554B186810F0006000F020825E
:103E3000186910F4801000F01B821A461B69C3F346
:103E4000062303FB01F0D368C3F302130133B0FB75
:103E5000F3F01369C3F3415301335B00B0FBF3F09C
:103E600006E2B0F5007F00F0A081B0F5806F1BD1B5
:103E7000424BD3F8883003F44013B3F5001F00F031
:103E8000D78100F2C481002B00F0CF81B3F5801FF1
:103E900040F0BB81394BD3F8940010F0020000F0E1
:103EA000E7814FF4FA40E3E10020E1E1B0F5005F83
:103EB000A8D0B0F5804F0FD1304BD3F8883003F045
:103EC0004053B3F1805F00F00D81B3F1405F40F0EB
:103ED000D881FEF763FFCBE10020C9E10020C7E1F4
:103EE0004FF40060FFF7F6FBC2E10020C0E1B3F140
:103EF000406F40F0C08103F1505303F5043318685C
:103F000010F0020000F0B4811B6813F0080F07D016
:103F10001A4B1B68C3F303131A4A52F82300A7E194
:103F2000164BD3F89430C3F30323F5E7134B18680B
:103F300010F0007000F09C81D86810F4801000F040
:103F400097811A46DB68C3F3062303FB01F0D368AD
:103F5000C3F302130133B0FBF3F0D368C3F341534F
:103F600001335B00B0FBF3F082E1044BD3F898001F
:103F700010F0020000F07C81054879E10010024059
:103F800090D003007CDE00080024F40000127A00C8
:103F9000006CDC02AA4BD3F8883003F00303032B38
:103FA00000F26B81DFE803F002050810FFF762FB07
:103FB0005EE1FEF7F3FE5BE1A14B186810F4806050
:103FC00000F056819F4853E19D4BD3F8900010F0CC
:103FD000020000F04D814FF4004049E1984BD3F8C6
:103FE000883003F00C030C2B00F24981DFE813F05A
:103FF0000D004701470147011000470147014701F4
:1040000013004701470147011B00FFF721FB2FE188
:10401000FEF7C4FE2CE18A4B186810F4806000F0B3
:104020002781884824E1864BD3F8900010F00200E5
:1040300000F01E814FF400401AE1814BD3F8883024
:1040400003F03003202B19D007D8A3B1102B02D1D5
:10405000FEF7A4FE0CE100200AE1302B09D1784BD9
:10406000D3F8900010F0020000F002814FF40040FD
:10407000FEE00020FCE0FFF7EBFAF9E0704B186877
:1040800010F4806000F0F4806E48F1E06C4BD3F8DF
:10409000883003F44063B3F5006F1BD008D8B3B188
:1040A000B3F5806F02D1FEF779FEE1E00020DFE09A
:1040B000B3F5406F09D1624BD3F8900010F00200C5
:1040C00000F0D6804FF40040D2E00020D0E0FFF7AF
:1040D000BFFACDE05A4B186810F4806000F0C88039
:1040E0005848C5E0564B186810F0006000F0C080DA
:1040F000186910F0807000F0BB801A461B69C3F38A
:10410000062303FB01F0D368C3F302130133B0FBB2
:10411000F3F01369C3F3416301335B00B0FBF3F0C9
:10412000A6E0474BD3F8883003F44053B3F5805FE3
:1041300008D0B3F5005F08D00BB1002098E0FFF77E
:1041400087FA95E0FEF72AFE92E03D4B186810F4DE
:10415000806000F08D803B488AE0FFF779FA87E0C5
:10416000FEF71CFE84E0364B186810F480607FD0A8
:1041700034487DE0324BD3F8883003F44033B3F554
:10418000803F08D0B3F5003F08D00BB100206FE0AE
:10419000FFF75EFA6CE0FEF701FE69E0284B186855
:1041A00010F4806064D0274862E0254BD3F8883053
:1041B00003F44023B3F5002F20D00ED8DBB1B3F5C4
:1041C000802F08D11E4BD3F8940010F002004FD07E
:1041D0004FF4FA404CE000204AE0B3F5402F08D1FC
:1041E000174BD3F8900010F0020041D04FF400407C
:1041F0003EE000203CE0FFF72BFA39E0104B186856
:1042000010F4806034D00F4832E0002030E0B3F585
:10421000401F08D10A4BD3F8900010F0020027D0BD
:104220004FF4004024E0002022E0FFF711FA1FE0E5
:10423000034B186810F480601AD0024818E000BFE1
:10424000001002400024F4000F4BD3F8883013F024
:10425000804302D023B900200AE0FFF7F9F907E014
:10426000094B186810F4806002D0084800E0002074
:1042700008BD0020FCE70020FAE70020F8E7002056
:10428000F6E70020F4E700BF001002400024F4002D
:10429000F0B482B000235BE086685F000325BD4078
:1042A00026EA0506CD68BD4035438560466826EAA6
:1042B00004064D68C5F300149C403443446055E047
:1042C000DD08083550F8257003F00704A6000F2418
:1042D000B44027EA04070C69B4403C4340F8254049
:1042E00058E0042400E00024B4403C4302354C4E26
:1042F00046F825404B4CA568D44325EA02064F6892
:1043000017F4801F01D042EA0506464DAE60ED6805
:1043100004EA05064F6817F4001F01D042EA0506BB
:10432000404DEE606D6804EA05064F6817F4003FE3
:1043300001D042EA05063B4D6E602D682C404E6868
:1043400016F4803F01D042EA0504364A1460013376
:104350000A6832FA03F45FD001249C402240F6D070
:104360004D6805F00305013D012D95D94C6804F019
:104370000304032C09D0C5685E000324B44025EA79
:1043800004058C68B4402C43C4604C6804F00304FA
:10439000022C95D005685E000324B44025EA04058C
:1043A0004C6804F00304B4402C4304604C6814F4DB
:1043B000403FCCD01C4C256E45F001052566246E8F
:1043C00004F001040194019C9D08AE1C144C54F8A7
:1043D000267003F00304A6000F24B44027EA040764
:1043E000B0F1904F3FF47FAF104CA0420ED004F5D7
:1043F0008064A0420CD004F58064A0420AD004F589
:104400008064A0423FF46DAF07246DE701246BE7A1
:10441000022469E7032467E702B0F0BC704700BFDD
:104420000000014000040140001002400004004868
:104430000369194201D0012070470020704770B411
:10444000446C04F01C05066C0124AC4074600468E4
:1044500063608368102B05D0036899600368DA6095
:1044600070BC704703689A600368D960F8E7000081
:10447000002868D010B403460068344A904244D8FB
:10448000334A02443349A1FB0212120992005A64D2
:10449000314A1A64022283F82520016821F4FF4181
:1044A00021F070019A68DC6822431C6922435C6930
:1044B00022439C692243DC6922431C6A22430A434B
:1044C00002609A68B2F5804F15D0196C224A914269
:1044D00026D0224A1168586C00F01C040F20A0401E
:1044E00021EA00011160116858685C6C04F01C043A
:1044F000A040014311600020D863012283F82520E9
:1045000083F824005DF8044B7047154A02441149B2
:10451000A1FB0212120992005A64124A1A64B9E706
:10452000A8321168586C00F01C040F20A04021EA4A
:1045300000011160116858685C6C04F01C04A04014
:1045400001431160D7E70120704700BF0704024014
:10455000F8FFFDBFCDCCCCCC00000240A804024047
:10456000F8FBFDBF0004024000284ED010B4034603
:1045700001680A6822F001020A600168244A914237
:104580002DD8244A0A442448A0FB020212099200B2
:104590005A64224A1A6400220A605A6C02F01C0112
:1045A000186C01228A404260196C1C4A914221D049
:1045B0001B4C2268596C01F01C000F21814022EA3B
:1045C000010222600020D862186358639863D863A0
:1045D00083F8250083F824005DF8044B7047114AE6
:1045E0000A440D48A0FB0202120992005A640E4AC6
:1045F0001A64D0E70D4C2268596C01F01C000F21A1
:10460000814022EA01022260DCE70120704700BFFE
:1046100007040240F8FFFDBFCDCCCCCC0000024027
:10462000A8040240F8FBFDBF00040240A8000240BD
:1046300038B5044690F82400012832D0012084F8CF
:10464000240094F82500C0B2012804D0002384F887
:104650002430022038BD022084F825000020E063C9
:104660002568286820F0010028602046FFF7E7FE53
:10467000236B5BB12268136843F00E03136022685A
:10468000136843F0010313600020E3E72268136816
:1046900023F0040313602268136843F00A031360D5
:1046A000EDE70220D6E790F82530DBB2022B06D0EA
:1046B0000423C363002380F824300120704702687C
:1046C000136823F00E0313600268136823F00103DC
:1046D0001360436C03F01C03016C012202FA03F324
:1046E0004B6080F82520002380F82430184670475E
:1046F00008B590F82530DBB2022B03D00423C36346
:10470000012008BD0268136823F00E0313600268DD
:10471000136823F001031360436C03F01C03016C66
:10472000012202FA03F34B6080F82520002380F871
:104730002430836B13B198470020E2E70020E0E7C4
:1047400038B5036C196804682568436C03F01C03D2
:1047500004229A400A4215D015F0040F12D02368A3
:1047600013F0200F03D1236823F004032360436C6C
:1047700003F01C02016C042393404B60036B03B1F4
:10478000984738BD02229A400A421CD015F0020F09
:1047900019D0236813F0200F06D1236823F00A03F1
:1047A0002360012380F82530436C03F01C02016C68
:1047B000022393404B60002380F82430C36A002B0F
:1047C000DFD09847DDE7082202FA03F30B42D8D086
:1047D00015F0080FD5D0236823F00E032360436C37
:1047E00003F01C03016C012202FA03F34B60C26365
:1047F00080F82520002380F82430436B002BC0D0A4
:104800009847BEE7024B186800F4C060704700BFCD
:1048100000700040B0F5007F0FD01F4B1B6803F401
:10482000C063B3F5806F34D01B4A136823F4C063B0
:1048300043F48063136000207047174B1B6803F438
:10484000C063B3F5007F20D0134A136823F4C0631C
:1048500043F400731360114B1A68322303FB02F315
:104860000F4AA2FB03239B0C013300E0013B0A4AE1
:10487000526912F4806F01D0002BF7D1064B5B69AF
:1048800013F4806F03D1002070470020704703208D
:1048900070470020704700BF0070004048080020AB
:1048A00083DE1B43074AD36823F4E0631B041B0C1D
:1048B000000200F4E060034343F0BF6343F40033BD
:1048C000D360704700ED00E030B4174BDB68C3F3F2
:1048D0000223C3F10704042C28BF04241D1D062D48
:1048E00018D9033B4FF0FF3505FA04F421EA04011F
:1048F000994005FA03F322EA0303194300280BDB6E
:104900000901C9B200F1604000F5614080F8001370
:1049100030BC70470023E5E700F00F000901C9B281
:10492000024B1954F4E700BF00ED00E014ED00E085
:10493000002807DB00F01F02400901239340024AD0
:1049400042F82030704700BF00E100E003689A6938
:1049500012F0020F01D000229A6203689A6912F0E5
:10496000010F03D19A6942F001029A61704710B4B5
:10497000019CC1F3090141EA02411943214321F09D
:10498000004102685368640D04F4806444F07F744D
:1049900044F4583444F47F7444F0030423EA0404D8
:1049A000214351605DF8044B70472DE9F041044606
:1049B00003689F6917F010074CD00E4690461022EE
:1049C000DA6100252368986910F0200F3BD1002D93
:1049D00039D1B6F1FF3FF5D0FEF77EF9A0EB080024
:1049E000B04201D8002EEDD121684B6803F480431A
:1049F00094F84220D2B2886910F4004F02D00BB96B
:104A0000202A18D123689B6913F0200FDAD1FEF712
:104A100063F9A0EB08001928F4D9636C43F0200374
:104A20006364202384F84130002384F8423084F802
:104A300040300125E6E74B6843F480434B60FEF7C6
:104A40004BF98046DEE7002D40D12022DA610427B1
:104A5000012500E000252268936913F4807F05D0CA
:104A600047F001074FF48071D161012513F4806F85
:104A700006D047F0080722684FF48061D161012514
:104A800013F4007F24D047F0020723684FF400722C
:104A9000DA6101252046FFF759FF2268536823F0A9
:104AA000FF7323F48B3323F4FF7323F0010353606C
:104AB000636C1F436764202384F84130002384F82B
:104AC000423084F840302846BDE8F0810427C2E730
:104AD000002DF8D0DEE770B504460D461646236873
:104AE0009B6913F0020F1DD1324629462046FFF77D
:104AF0005CFFC8B9B5F1FF3FF1D0FEF7EDF8801BC0
:104B0000A84201D8002DEAD1636C43F0200363640E
:104B1000202384F84130002384F8423084F8403068
:104B2000012000E0002070BD0120FCE72DE9F041EC
:104B30000646884617461D463468A46938EA0403C9
:104B40000CBF01240024BC4218D1B5F1FF3FF3D0C3
:104B5000FEF7C2F8069BC01AA84201D8002DEBD17F
:104B6000736C43F020037364202386F841300023E4
:104B700086F8423086F84030012000E00020BDE891
:104B8000F08100002DE9F04182B0044690461D46B8
:104B9000089E099F194B00934FF08073EAB2FFF70C
:104BA000E6FE3A4631462046FFF795FFF8B9012D5B
:104BB0000ED123685FFA88F29A620097334600228A
:104BC00080212046FFF7B2FFA8B902B0BDE8F0810E
:104BD00023684FEA18229A623A4631462046FFF788
:104BE0007AFF30B923685FFA88F29A62E5E701201C
:104BF000EBE70120E9E70120E7E700BF00200080A4
:104C000070B505460C4616462B689B6913F0200FBD
:104C10001AD1324621462846FFF7C7FEB0B9FEF743
:104C20005BF8801BA04201D8002CEDD16B6C43F0E7
:104C300020036B64202385F84130002385F842303F
:104C400085F84030012070BD0020FCE70120FAE724
:104C5000002859D010B5044690F84130002B43D0BD
:104C6000242384F841302268136823F00103136081
:104C70006368226823F0706313612268936823F4E9
:104C800000439360E368012B33D0A368226843F4A8
:104C900004439360E368022B31D02268536843F0E9
:104CA000007343F4004353602268D36823F4004345
:104CB000D360236962691343A169226843EA01232F
:104CC000D360E369216A22680B431360226813688A
:104CD00043F00103136000206064202384F8413016
:104CE000206384F8420010BD80F84030FDF760FE7C
:104CF000B6E7A368226843F400439360CAE72368D9
:104D00004FF400625A60C8E7012070472DE9F04F68
:104D100083B00E46BDF834A00E9D90F84110C9B284
:104D2000202940F0BB800446904699460C9BCBB1AD
:104D3000BAF1000F16D090F84030012B00F0B2808D
:104D40004FF0010B80F840B0FDF7C6FF074600901A
:104D500019235A464FF400412046FFF7E7FE30B1D1
:104D600001209CE04FF400736364012097E021234D
:104D700084F84130402384F84230002363640C9A65
:104D80006262A4F82AA06363019700954B464246ED
:104D900031462046FFF7F6FE70B9638D9BB2FF2BBC
:104DA0000FD9FF222285002300934FF080733146F4
:104DB0002046FFF7DCFD21E0002384F84030584610
:104DC0006DE0628D92B22285002300934FF0007354
:104DD000D2B231462046FFF7CAFD0FE0628D92B293
:104DE0002285002300934FF00073D2B23146204653
:104DF000FFF7BDFD638D9BB2002B33D03A462946A9
:104E00002046FFF768FE00284ED1626A23681278B8
:104E10009A62636A01336362638D9BB2013B9BB20A
:104E20006385238D013B9BB22385628D92B2002A5C
:104E3000E0D0002BDED100972B46002280212046B7
:104E4000FFF774FE90BB638D9BB2FF2BC6D9FF2288
:104E50002285002300934FF0807331462046FFF7F0
:104E600086FDC7E73A4629462046FFF7C9FEF8B94E
:104E700023682022DA6121684B6823F0FF7323F452
:104E80008B3323F4FF7323F001034B6084F841203C
:104E9000002384F8423084F8403000E0022003B060
:104EA000BDE8F08F0220FAE70120F8E70120F6E7DD
:104EB0000120F4E790F84130DBB2202B24D190F8A8
:104EC0004030012B22D0012380F84030242380F889
:104ED00041300268136823F001031360026813680D
:104EE00023F4805313600268136819431160026849
:104EF000136843F001031360202380F8413000233E
:104F000080F84030184670470220704702207047F2
:104F100090F84130DBB2202B22D190F84030012BA9
:104F200020D0012380F84030242380F841300268EB
:104F3000136823F0010313600268136823F470639D
:104F400043EA012111600268136843F00103136012
:104F5000202380F84130002380F840301846704705
:104F6000022070470220704782B0084A116E41F05B
:104F700001011166126E02F001020192019B044AC6
:104F800053680343536002B0704700BF00100240F3
:104F90000000014030B4036A23F001030362036A96
:104FA0004468826922F4803222F073020D682A4339
:104FB00023F002038D682B43144DA84207D005F55A
:104FC000A055A84203D005F58065A84205D123F07D
:104FD0000803CD682B4323F004030C4DA84207D0EF
:104FE00005F5A055A84203D005F58065A84205D176
:104FF00024F440754C692C438D692C4344608261D4
:105000004A684263036230BC704700BF002C014015
:1050100030B4036A23F480730362036A4468C2698C
:1050200022F4803222F073020D682A4323F40073C5
:105030008D6843EA0523124DA84219D0104DA842AD
:1050400007D005F5A055A84203D005F58065A84214
:1050500007D124F440544D6944EA05148D6944EAAB
:1050600005144460C2614A68C263036230BC704781
:1050700023F40063CD6843EA052323F48063DDE76E
:10508000002C014030B4036A23F480530362026AA7
:105090004468C36923F0807323F4E6430D6843EA50
:1050A000052322F400528D6842EA05320B4DA842D6
:1050B00007D005F5A055A84203D005F58065A842A4
:1050C00004D124F480444D6944EA85144460C361EA
:1050D0004B680364026230BC704700BF002C014083
:1050E00030B4036A23F480330362036A4468426D78
:1050F00022F4803222F070020D682A4323F4003338
:105100008D6843EA05430B4DA84207D005F5A0552D
:10511000A84203D005F58065A84204D124F4803468
:105120004D6944EA0524446042654A688265036229
:1051300030BC7047002C014030B4036A23F4801364
:105140000362026A4468436D23F0807323F4E043F2
:105150000D6843EA052322F400128D6842EA0552E5
:105160000B4DA84207D005F5A055A84203D005F580
:105170008065A84204D124F480244D6944EA852442
:10518000446043654B68C365026230BC704700BF32
:10519000002C014030B4036A056A25F00105056260
:1051A000846924F0F00444EA021423F00A030B4358
:1051B0008461036230BC704730B4056A25F0100585
:1051C00005628469036A24F4704444EA023423F0DB
:1051D000A00343EA01138461036230BC7047836813
:1051E00023F070030B4343F0070383607047000014
:1051F00090F83D30DBB2012B21D1022380F83D3005
:105200000368124A93420CD0B3F1804F09D002F5E3
:10521000A052934205D01A6842F001021A600020A1
:10522000704799680A4A0A40062A0AD0B2F5803FB8
:1052300009D01A6842F001021A600020704701206C
:105240007047002070470020704700BF002C0140CD
:105250000700010090F83D30DBB2012B26D102237C
:1052600080F83D300268D36843F00103D3600368DF
:10527000114A93420CD0B3F1804F09D002F5A052ED
:10528000934205D01A6842F001021A60002070476C
:1052900099680A4A0A40062A0AD0B2F5803F09D026
:1052A0001A6842F001021A6000207047012070471E
:1052B0000020704700207047002C014007000100CB
:1052C0007047704770477047704710B504460368D1
:1052D0001A6912F0020F11D0DA6812F0020F0DD025
:1052E0006FF002021A610123037703689B6913F0D0
:1052F000030F79D0FFF7E6FF0023237723681A69AD
:1053000012F0040F12D0DA6812F0040F0ED06FF012
:1053100004021A610223237723689B6913F4407FF8
:1053200068D02046FFF7CEFF0023237723681A6951
:1053300012F0080F12D0DA6812F0080F0ED06FF0DA
:1053400008021A61042323772368DB6913F0030F33
:1053500057D02046FFF7B6FF0023237723681A694A
:1053600012F0100F12D0DA6812F0100F0ED06FF09A
:1053700010021A61082323772368DB6913F4407F46
:1053800046D02046FFF79EFF0023237723681A6943
:1053900012F0010F03D0DA6812F0010F3FD1236839
:1053A0001A6912F0800F03D0DA6812F0800F3DD135
:1053B00023681A6912F4807F03D0DA6812F0800F34
:1053C0003BD123681A6912F0400F03D0DA6812F05B
:1053D000400F39D123681A6912F0200F03D0DA6820
:1053E00012F0200F37D110BDFFF76BFF2046FFF7FB
:1053F0006AFF81E72046FFF764FF2046FFF763FF5F
:1054000092E72046FFF75DFF2046FFF75CFFA3E72A
:105410002046FFF756FF2046FFF755FFB4E76FF031
:1054200001021A61204607F0E7F9B8E76FF0800241
:105430001A61204600F097FABAE76FF480721A6199
:10544000204600F091FABCE76FF040021A61204656
:10545000FFF73AFFBEE76FF020021A61204600F026
:1054600081FAC0E703681A4A904202D0B0F1804F37
:1054700003D123F070034A681343154A90420AD0BF
:10548000B0F1804F07D002F5A052904203D002F550
:105490008062904203D123F44073CA68134323F01F
:1054A00080034A69134303608B68C3620B6883629D
:1054B000074B984207D003F5A053984203D003F559
:1054C0008063984201D10B690363012343617047F4
:1054D000002C014060B310B5044690F83D3013B382
:1054E000022384F83D30214651F8040BFFF7BAFF40
:1054F000012384F8483084F83E3084F83F3084F843
:10550000403084F8413084F8423084F8433084F8E5
:10551000443084F8453084F8463084F8473084F8C5
:105520003D30002010BD80F83C30FDF715FBD7E77B
:105530000120704760B310B5044690F83D3013B3B6
:10554000022384F83D30214651F8040BFFF78AFF0F
:10555000012384F8483084F83E3084F83F3084F8E2
:10556000403084F8413084F8423084F8433084F885
:10557000443084F8453084F8463084F8473084F865
:105580003D30002010BD80F83C30FFF799FED7E792
:105590000120704730B4036A23F010030362036AEA
:1055A0004468826922F0807222F4E6420D6842EA81
:1055B000052223F020038D6843EA0513124DA8420B
:1055C00019D0114DA84207D005F5A055A84203D027
:1055D00005F58065A84207D124F440644D6944EA8A
:1055E00085048D6944EA8504446082614A68826367
:1055F000036230BC704723F08003CD6843EA051393
:1056000023F04003DDE700BF002C014090F83C3060
:10561000012B36D010B50446012380F83C30142A03
:105620002AD8DFE802F00B29292910292929152970
:1056300029291A2929291F29292924000068FFF767
:10564000A9FC002019E00068FFF7A4FF002014E087
:105650000068FFF7DDFC00200FE00068FFF712FD97
:1056600000200AE00068FFF73BFD002005E000682D
:10567000FFF762FD002000E00120002384F83C30A9
:1056800010BD0220704710B4846824F47F4442EABD
:1056900003220A43224382605DF8044B70470000F6
:1056A00090F83C30012B76D010B50446012380F8E9
:1056B0003C30022380F83D3002689068374B03404D
:1056C00093600B68602B4CD029D8402B54D00CD958
:1056D000502B22D1CA6849682068FFF75BFD502132
:1056E0002068FFF77CFD002005E0202B0DD009D9B4
:1056F000302B0AD00120012384F83D30002384F8A8
:105700003C3010BD0BB1102B05D119462068FFF7B6
:1057100066FD0020EFE70120EDE70120EBE7B3F5A0
:10572000805F34D0B3F5005F0CD1CB684A688968DC
:105730002068FFF7A8FF2268936843F480439360D2
:105740000020D8E7702B24D1CB684A68896820688C
:10575000FFF799FF2268936843F077039360002076
:10576000C9E7CA6849682068FFF726FD60212068FC
:10577000FFF735FD0020BEE7CA6849682068FFF7DB
:1057800009FD40212068FFF72AFD0020B3E7002033
:10579000B1E70120AFE70220704700BF8800FEFF9D
:1057A00010B401F01F01012303FA01F4036A23EA94
:1057B00004030362036A02FA01F10B4303625DF81A
:1057C000044B704710B504460846002932D194F8BE
:1057D0003E30DBB2013B18BF0123002B7FD10028F4
:1057E00053D1022384F83E30012201462068FFF79E
:1057F000D7FF23683D4A934207D002F5A052934257
:1058000003D002F58062934203D15A6C42F4004205
:105810005A642368354A934253D0B3F1804F50D035
:1058200002F5A05293424CD01A6842F001021A606D
:10583000002055E004290CD0082911D00C2916D0DD
:1058400010291BD094F84330DBB2013B18BF012371
:10585000C3E794F83F30DBB2013B18BF0123BCE73C
:1058600094F84030DBB2013B18BF0123B5E794F850
:105870004130DBB2013B18BF0123AEE794F8423060
:10588000DBB2013B18BF0123A7E7042809D0082891
:105890000BD00C280DD010280FD0022384F84330F1
:1058A000A2E7022384F83F309EE7022384F84030C9
:1058B0009AE7022384F8413096E7022384F84230C5
:1058C00092E799680A4A0A40062A0AD0B2F5803F50
:1058D00009D01A6842F001021A60002000E001209D
:1058E00010BD0020FCE70020FAE700BF002C0140BB
:1058F0000700010090F83C30012B2FD030B4012379
:1059000080F83C30022380F83D3002685368956887
:10591000134CA2421DD023F070030C682343536044
:1059200003680F4A934206D0B3F1804F03D002F5CB
:10593000A052934204D125F080058A6815439D60EA
:10594000012380F83D30002380F83C30184630BCFD
:10595000704723F470034C682343DCE70220704750
:10596000002C01407047704770470000034AD2F88E
:10597000883043F47003C2F88830704700ED00E0CF
:1059800000F1080343604FF0FF328260C36003619F
:1059900000230360704700230361704743684B6036
:1059A0009A688A60516099600861036801330360F6
:1059B000704730B40D68B5F1FF3F11D000F1080316
:1059C0001C465B681A68AA42FAD963684B60996002
:1059D0008C606160086103680133036030BC70470C
:1059E0000469F2E70369416882688A60416851602E
:1059F0005A68824206D0002202611A68013A1A608F
:105A00001868704782685A60F5E70346406A18B123
:105A10001B6B1868C0F13800704710B5044602F0DF
:105A200029F9A26BE36B9A4204D0002402F044F9F6
:105A3000204610BD0124F9E710B5044602F01AF91A
:105A4000A36B23B9012402F037F9204610BD0024CE
:105A5000F9E770B504461546866B026C5AB90368BF
:105A60001BB100200136A66370BD806801F034FAD6
:105A70000023A360F6E76DB94068FAF723FF226CB4
:105A8000636813446360A268934219D32368636018
:105A90002846E7E7C068FAF715FF226C5142E36831
:105AA0009B1AE3602268934202D2A3680B44E3602E
:105AB000022D01D00020D5E726B1013E0020D1E71C
:105AC0002846CFE70020CDE70346026C6AB110B547
:105AD0000846D9681144D9609C68A14201D319686D
:105AE000D960D968FAF7EEFE10BD704738B50546A3
:105AF00002F0C0F895F8454064B203E001F08AF97D
:105B0000013C64B2002C08DD6B6A33B105F124005E
